{
  "address": "0x47B06a6Ba1C2e8EAAD3730e457b5f39Ab469e5A6",
  "abi": [
    {
      "inputs": [
        {
          "internalType": "uint64",
          "name": "_subscriptionId",
          "type": "uint64"
        },
        {
          "internalType": "address",
          "name": "_VRFCoordinator",
          "type": "address"
        },
        {
          "internalType": "bytes32",
          "name": "_keyHash",
          "type": "bytes32"
        }
      ],
      "stateMutability": "nonpayable",
      "type": "constructor"
    },
    {
      "inputs": [
        {
          "internalType": "address",
          "name": "have",
          "type": "address"
        },
        {
          "internalType": "address",
          "name": "want",
          "type": "address"
        }
      ],
      "name": "OnlyCoordinatorCanFulfill",
      "type": "error"
    },
    {
      "anonymous": false,
      "inputs": [
        {
          "indexed": true,
          "internalType": "uint256",
          "name": "gameId",
          "type": "uint256"
        },
        {
          "indexed": true,
          "internalType": "address",
          "name": "winner",
          "type": "address"
        },
        {
          "indexed": true,
          "internalType": "uint256",
          "name": "betAmount",
          "type": "uint256"
        }
      ],
      "name": "GameFinished",
      "type": "event"
    },
    {
      "anonymous": false,
      "inputs": [
        {
          "indexed": true,
          "internalType": "uint256",
          "name": "gameId",
          "type": "uint256"
        },
        {
          "indexed": true,
          "internalType": "address",
          "name": "player",
          "type": "address"
        },
        {
          "indexed": true,
          "internalType": "uint256",
          "name": "betAmount",
          "type": "uint256"
        }
      ],
      "name": "GameJoined",
      "type": "event"
    },
    {
      "anonymous": false,
      "inputs": [
        {
          "indexed": true,
          "internalType": "uint256",
          "name": "gameId",
          "type": "uint256"
        },
        {
          "indexed": true,
          "internalType": "address",
          "name": "player1",
          "type": "address"
        },
        {
          "indexed": true,
          "internalType": "uint256",
          "name": "betAmount",
          "type": "uint256"
        }
      ],
      "name": "GameStarted",
      "type": "event"
    },
    {
      "anonymous": false,
      "inputs": [
        {
          "indexed": true,
          "internalType": "address",
          "name": "previousOwner",
          "type": "address"
        },
        {
          "indexed": true,
          "internalType": "address",
          "name": "newOwner",
          "type": "address"
        }
      ],
      "name": "OwnershipTransferred",
      "type": "event"
    },
    {
      "anonymous": false,
      "inputs": [
        {
          "indexed": false,
          "internalType": "uint256",
          "name": "requestId",
          "type": "uint256"
        },
        {
          "indexed": false,
          "internalType": "uint256[]",
          "name": "randomWords",
          "type": "uint256[]"
        }
      ],
      "name": "RequestFulfilled",
      "type": "event"
    },
    {
      "anonymous": false,
      "inputs": [
        {
          "indexed": false,
          "internalType": "uint256",
          "name": "requestId",
          "type": "uint256"
        },
        {
          "indexed": false,
          "internalType": "uint32",
          "name": "numWords",
          "type": "uint32"
        }
      ],
      "name": "RequestSent",
      "type": "event"
    },
    {
      "inputs": [],
      "name": "MIN_BET",
      "outputs": [
        {
          "internalType": "uint256",
          "name": "",
          "type": "uint256"
        }
      ],
      "stateMutability": "view",
      "type": "function"
    },
    {
      "inputs": [],
      "name": "ROI",
      "outputs": [
        {
          "internalType": "uint256",
          "name": "",
          "type": "uint256"
        }
      ],
      "stateMutability": "view",
      "type": "function"
    },
    {
      "inputs": [
        {
          "internalType": "uint256",
          "name": "_betAmount",
          "type": "uint256"
        }
      ],
      "name": "calculateROI",
      "outputs": [
        {
          "internalType": "uint256",
          "name": "",
          "type": "uint256"
        }
      ],
      "stateMutability": "pure",
      "type": "function"
    },
    {
      "inputs": [],
      "name": "callbackGasLimit",
      "outputs": [
        {
          "internalType": "uint32",
          "name": "",
          "type": "uint32"
        }
      ],
      "stateMutability": "view",
      "type": "function"
    },
    {
      "inputs": [
        {
          "internalType": "uint256",
          "name": "_playerChoice",
          "type": "uint256"
        }
      ],
      "name": "createGame",
      "outputs": [],
      "stateMutability": "payable",
      "type": "function"
    },
    {
      "inputs": [
        {
          "internalType": "uint256",
          "name": "",
          "type": "uint256"
        }
      ],
      "name": "createdGames",
      "outputs": [
        {
          "internalType": "uint256",
          "name": "gameId",
          "type": "uint256"
        },
        {
          "internalType": "address",
          "name": "player1",
          "type": "address"
        },
        {
          "internalType": "address",
          "name": "player2",
          "type": "address"
        },
        {
          "internalType": "uint256",
          "name": "betAmount",
          "type": "uint256"
        },
        {
          "internalType": "uint256",
          "name": "player1Choice",
          "type": "uint256"
        },
        {
          "internalType": "uint256",
          "name": "player2Choice",
          "type": "uint256"
        },
        {
          "internalType": "bool",
          "name": "isStarted",
          "type": "bool"
        },
        {
          "internalType": "bool",
          "name": "isFinished",
          "type": "bool"
        },
        {
          "internalType": "address",
          "name": "winner",
          "type": "address"
        }
      ],
      "stateMutability": "view",
      "type": "function"
    },
    {
      "inputs": [],
      "name": "gameId",
      "outputs": [
        {
          "internalType": "uint256",
          "name": "",
          "type": "uint256"
        }
      ],
      "stateMutability": "view",
      "type": "function"
    },
    {
      "inputs": [
        {
          "internalType": "uint256",
          "name": "",
          "type": "uint256"
        }
      ],
      "name": "gamesRequests",
      "outputs": [
        {
          "internalType": "uint256",
          "name": "",
          "type": "uint256"
        }
      ],
      "stateMutability": "view",
      "type": "function"
    },
    {
      "inputs": [
        {
          "internalType": "uint256",
          "name": "_gameId",
          "type": "uint256"
        }
      ],
      "name": "getGame",
      "outputs": [
        {
          "components": [
            {
              "internalType": "uint256",
              "name": "gameId",
              "type": "uint256"
            },
            {
              "internalType": "address",
              "name": "player1",
              "type": "address"
            },
            {
              "internalType": "address",
              "name": "player2",
              "type": "address"
            },
            {
              "internalType": "uint256",
              "name": "betAmount",
              "type": "uint256"
            },
            {
              "internalType": "uint256",
              "name": "player1Choice",
              "type": "uint256"
            },
            {
              "internalType": "uint256",
              "name": "player2Choice",
              "type": "uint256"
            },
            {
              "internalType": "bool",
              "name": "isStarted",
              "type": "bool"
            },
            {
              "internalType": "bool",
              "name": "isFinished",
              "type": "bool"
            },
            {
              "internalType": "address",
              "name": "winner",
              "type": "address"
            }
          ],
          "internalType": "struct CoinFlip.Game",
          "name": "",
          "type": "tuple"
        }
      ],
      "stateMutability": "view",
      "type": "function"
    },
    {
      "inputs": [
        {
          "internalType": "uint256",
          "name": "_requestId",
          "type": "uint256"
        }
      ],
      "name": "getGameByRequestId",
      "outputs": [
        {
          "internalType": "uint256",
          "name": "",
          "type": "uint256"
        }
      ],
      "stateMutability": "view",
      "type": "function"
    },
    {
      "inputs": [],
      "name": "getKeyHash",
      "outputs": [
        {
          "internalType": "bytes32",
          "name": "",
          "type": "bytes32"
        }
      ],
      "stateMutability": "view",
      "type": "function"
    },
    {
      "inputs": [],
      "name": "getLastRequiestId",
      "outputs": [
        {
          "internalType": "uint256",
          "name": "",
          "type": "uint256"
        }
      ],
      "stateMutability": "view",
      "type": "function"
    },
    {
      "inputs": [
        {
          "internalType": "uint256",
          "name": "_requestId",
          "type": "uint256"
        }
      ],
      "name": "getRequestStatus",
      "outputs": [
        {
          "internalType": "bool",
          "name": "fulfilled",
          "type": "bool"
        },
        {
          "internalType": "uint256[]",
          "name": "randomWords",
          "type": "uint256[]"
        }
      ],
      "stateMutability": "view",
      "type": "function"
    },
    {
      "inputs": [],
      "name": "getSubscriptionId",
      "outputs": [
        {
          "internalType": "uint64",
          "name": "",
          "type": "uint64"
        }
      ],
      "stateMutability": "view",
      "type": "function"
    },
    {
      "inputs": [
        {
          "internalType": "uint256",
          "name": "_gameId",
          "type": "uint256"
        }
      ],
      "name": "joinGame",
      "outputs": [],
      "stateMutability": "payable",
      "type": "function"
    },
    {
      "inputs": [],
      "name": "keyHash",
      "outputs": [
        {
          "internalType": "bytes32",
          "name": "",
          "type": "bytes32"
        }
      ],
      "stateMutability": "view",
      "type": "function"
    },
    {
      "inputs": [],
      "name": "lastRequestId",
      "outputs": [
        {
          "internalType": "uint256",
          "name": "",
          "type": "uint256"
        }
      ],
      "stateMutability": "view",
      "type": "function"
    },
    {
      "inputs": [],
      "name": "numWords",
      "outputs": [
        {
          "internalType": "uint32",
          "name": "",
          "type": "uint32"
        }
      ],
      "stateMutability": "view",
      "type": "function"
    },
    {
      "inputs": [],
      "name": "owner",
      "outputs": [
        {
          "internalType": "address",
          "name": "",
          "type": "address"
        }
      ],
      "stateMutability": "view",
      "type": "function"
    },
    {
      "inputs": [
        {
          "internalType": "uint256",
          "name": "requestId",
          "type": "uint256"
        },
        {
          "internalType": "uint256[]",
          "name": "randomWords",
          "type": "uint256[]"
        }
      ],
      "name": "rawFulfillRandomWords",
      "outputs": [],
      "stateMutability": "nonpayable",
      "type": "function"
    },
    {
      "inputs": [],
      "name": "renounceOwnership",
      "outputs": [],
      "stateMutability": "nonpayable",
      "type": "function"
    },
    {
      "inputs": [],
      "name": "requestConfirmations",
      "outputs": [
        {
          "internalType": "uint16",
          "name": "",
          "type": "uint16"
        }
      ],
      "stateMutability": "view",
      "type": "function"
    },
    {
      "inputs": [
        {
          "internalType": "uint256",
          "name": "",
          "type": "uint256"
        }
      ],
      "name": "requestIds",
      "outputs": [
        {
          "internalType": "uint256",
          "name": "",
          "type": "uint256"
        }
      ],
      "stateMutability": "view",
      "type": "function"
    },
    {
      "inputs": [],
      "name": "requestRandomWords",
      "outputs": [
        {
          "internalType": "uint256",
          "name": "requestId",
          "type": "uint256"
        }
      ],
      "stateMutability": "nonpayable",
      "type": "function"
    },
    {
      "inputs": [
        {
          "internalType": "uint256",
          "name": "",
          "type": "uint256"
        }
      ],
      "name": "s_requests",
      "outputs": [
        {
          "internalType": "bool",
          "name": "fulfilled",
          "type": "bool"
        },
        {
          "internalType": "bool",
          "name": "exists",
          "type": "bool"
        }
      ],
      "stateMutability": "view",
      "type": "function"
    },
    {
      "inputs": [],
      "name": "subscriptionId",
      "outputs": [
        {
          "internalType": "uint64",
          "name": "",
          "type": "uint64"
        }
      ],
      "stateMutability": "view",
      "type": "function"
    },
    {
      "inputs": [
        {
          "internalType": "address",
          "name": "newOwner",
          "type": "address"
        }
      ],
      "name": "transferOwnership",
      "outputs": [],
      "stateMutability": "nonpayable",
      "type": "function"
    },
    {
      "inputs": [],
      "name": "withdraw",
      "outputs": [],
      "stateMutability": "nonpayable",
      "type": "function"
    }
  ],
  "transactionHash": "0xb28c56cfd707ce0f719383f8b6747c29aa4b99964429622822bc91e480193b3e",
  "args": [
    "5742",
    "0x7a1BaC17Ccc5b313516C5E16fb24f7659aA5ebed",
    "0x4b09e658ed251bcafeebbc69400383d49f344ace09b9576fe248bb02c003fe9f"
  ],
  "numDeployments": 2,
  "solcInputHash": "88cc6c7a6cc2b9207dcbedbe5d7c5ad0",
  "bytecode": "0x61010060405260006002553480156200001757600080fd5b50604051620034913803806200349183398181016040528101906200003d9190620002b1565b816200005e62000052620000fb60201b60201c565b6200010360201b60201c565b600180819055508073ffffffffffffffffffffffffffffffffffffffff1660808173ffffffffffffffffffffffffffffffffffffffff1681525050508267ffffffffffffffff1660c08167ffffffffffffffff16815250508173ffffffffffffffffffffffffffffffffffffffff1660a08173ffffffffffffffffffffffffffffffffffffffff16815250508060e081815250505050506200030d565b600033905090565b60008060009054906101000a900473ffffffffffffffffffffffffffffffffffffffff169050816000806101000a81548173ffffffffffffffffffffffffffffffffffffffff021916908373ffffffffffffffffffffffffffffffffffffffff1602179055508173ffffffffffffffffffffffffffffffffffffffff168173ffffffffffffffffffffffffffffffffffffffff167f8be0079c531659141344cd1fd0a4f28419497f9722a3daafe3b4186f6b6457e060405160405180910390a35050565b600080fd5b600067ffffffffffffffff82169050919050565b620001eb81620001cc565b8114620001f757600080fd5b50565b6000815190506200020b81620001e0565b92915050565b600073ffffffffffffffffffffffffffffffffffffffff82169050919050565b60006200023e8262000211565b9050919050565b620002508162000231565b81146200025c57600080fd5b50565b600081519050620002708162000245565b92915050565b6000819050919050565b6200028b8162000276565b81146200029757600080fd5b50565b600081519050620002ab8162000280565b92915050565b600080600060608486031215620002cd57620002cc620001c7565b5b6000620002dd86828701620001fa565b9350506020620002f0868287016200025f565b925050604062000303868287016200029a565b9150509250925092565b60805160a05160c05160e0516131276200036a600039600081816107b701528181610bbf01526110f10152600081816106c20152818161108d0152611112015260006110b50152600081816106e6015261073a01526131276000f3fe6080604052600436106101b75760003560e01c80638da5cb5b116100ec578063d7c81b551161008a578063e0c8628911610064578063e0c8628914610625578063efaa55a014610650578063f2fde38b1461066c578063fc2a88c314610695576101b7565b8063d7c81b5514610591578063d8a4676f146105bc578063de3d9fb7146105fa576101b7565b8063a2f77bcc116100c6578063a2f77bcc146104b9578063ae945847146104f6578063b0fb162f1461053b578063d5c4315914610566576101b7565b80638da5cb5b146104135780639a0c24bd1461043e578063a168fa891461047b576101b7565b80636540742f11610159578063778b14c711610133578063778b14c7146103435780637ccfd7fc1461036e578063876e3466146103995780638796ba8c146103d6576101b7565b80636540742f146102c45780636d653a1c146102ef578063715018a61461032c576101b7565b8063331bf12511610195578063331bf1251461023b5780633ccfd60b1461026657806348e837b91461027d57806361728f3914610299576101b7565b806309c1ba2e146101bc5780631fe543e3146101e757806324f7469714610210575b600080fd5b3480156101c857600080fd5b506101d16106c0565b6040516101de9190612232565b60405180910390f35b3480156101f357600080fd5b5061020e600480360381019061020991906123f0565b6106e4565b005b34801561021c57600080fd5b506102256107a4565b604051610232919061246b565b60405180910390f35b34801561024757600080fd5b506102506107ab565b60405161025d919061249f565b60405180910390f35b34801561027257600080fd5b5061027b6107db565b005b610297600480360381019061029291906124ba565b610894565b005b3480156102a557600080fd5b506102ae610bbd565b6040516102bb919061249f565b60405180910390f35b3480156102d057600080fd5b506102d9610be1565b6040516102e691906124f6565b60405180910390f35b3480156102fb57600080fd5b50610316600480360381019061031191906124ba565b610beb565b60405161032391906124f6565b60405180910390f35b34801561033857600080fd5b50610341610c03565b005b34801561034f57600080fd5b50610358610c17565b60405161036591906124f6565b60405180910390f35b34801561037a57600080fd5b50610383610c21565b604051610390919061246b565b60405180910390f35b3480156103a557600080fd5b506103c060048036038101906103bb91906124ba565b610c26565b6040516103cd91906124f6565b60405180910390f35b3480156103e257600080fd5b506103fd60048036038101906103f891906124ba565b610c48565b60405161040a91906124f6565b60405180910390f35b34801561041f57600080fd5b50610428610c6c565b6040516104359190612552565b60405180910390f35b34801561044a57600080fd5b50610465600480360381019061046091906124ba565b610c95565b60405161047291906124f6565b60405180910390f35b34801561048757600080fd5b506104a2600480360381019061049d91906124ba565b610cb2565b6040516104b0929190612588565b60405180910390f35b3480156104c557600080fd5b506104e060048036038101906104db91906124ba565b610cf0565b6040516104ed9190612695565b60405180910390f35b34801561050257600080fd5b5061051d600480360381019061051891906124ba565b610e7e565b604051610532999897969594939291906126b1565b60405180910390f35b34801561054757600080fd5b50610550610f46565b60405161055d919061275b565b60405180910390f35b34801561057257600080fd5b5061057b610f4b565b60405161058891906124f6565b60405180910390f35b34801561059d57600080fd5b506105a6610f50565b6040516105b391906124f6565b60405180910390f35b3480156105c857600080fd5b506105e360048036038101906105de91906124ba565b610f56565b6040516105f1929190612825565b60405180910390f35b34801561060657600080fd5b5061060f611081565b60405161061c9190612232565b60405180910390f35b34801561063157600080fd5b5061063a6110b1565b60405161064791906124f6565b60405180910390f35b61066a600480360381019061066591906124ba565b6112e8565b005b34801561067857600080fd5b50610693600480360381019061068e9190612881565b6117b1565b005b3480156106a157600080fd5b506106aa611834565b6040516106b791906124f6565b60405180910390f35b7f000000000000000000000000000000000000000000000000000000000000000081565b7f000000000000000000000000000000000000000000000000000000000000000073ffffffffffffffffffffffffffffffffffffffff163373ffffffffffffffffffffffffffffffffffffffff161461079657337f00000000000000000000000000000000000000000000000000000000000000006040517f1cf993f400000000000000000000000000000000000000000000000000000000815260040161078d9291906128ae565b60405180910390fd5b6107a0828261183a565b5050565b6207a12081565b60006107b5611dd6565b7f0000000000000000000000000000000000000000000000000000000000000000905090565b6107e3611dd6565b60003373ffffffffffffffffffffffffffffffffffffffff1660035460405161080b90612908565b60006040518083038185875af1925050503d8060008114610848576040519150601f19603f3d011682016040523d82523d6000602084013e61084d565b606091505b5050905080610891576040517f08c379a00000000000000000000000000000000000000000000000000000000081526004016108889061297a565b60405180910390fd5b50565b600073ffffffffffffffffffffffffffffffffffffffff163373ffffffffffffffffffffffffffffffffffffffff1603610903576040517f08c379a00000000000000000000000000000000000000000000000000000000081526004016108fa90612a0c565b60405180910390fd5b655af3107a400034101561094c576040517f08c379a000000000000000000000000000000000000000000000000000000000815260040161094390612a9e565b60405180910390fd5b6001811115610990576040517f08c379a000000000000000000000000000000000000000000000000000000000815260040161098790612b0a565b60405180910390fd5b610998612113565b3481606001818152505033816020019073ffffffffffffffffffffffffffffffffffffffff16908173ffffffffffffffffffffffffffffffffffffffff16815250506002548160000181815250508181608001818152505060018160c0019015159081151581525050806006600060025481526020019081526020016000206000820151816000015560208201518160010160006101000a81548173ffffffffffffffffffffffffffffffffffffffff021916908373ffffffffffffffffffffffffffffffffffffffff16021790555060408201518160020160006101000a81548173ffffffffffffffffffffffffffffffffffffffff021916908373ffffffffffffffffffffffffffffffffffffffff160217905550606082015181600301556080820151816004015560a0820151816005015560c08201518160060160006101000a81548160ff02191690831515021790555060e08201518160060160016101000a81548160ff0219169083151502179055506101008201518160060160026101000a81548173ffffffffffffffffffffffffffffffffffffffff021916908373ffffffffffffffffffffffffffffffffffffffff160217905550905050343373ffffffffffffffffffffffffffffffffffffffff166002547f0c82908456d66c43e9de63edd66f9faf875c8f3a12f936e162d675ec42c3544460405160405180910390a4600160026000828254610bb29190612b59565b925050819055505050565b7f000000000000000000000000000000000000000000000000000000000000000081565b655af3107a400081565b60086020528060005260406000206000915090505481565b610c0b611dd6565b610c156000611e54565b565b6000600554905090565b600181565b60006064600583610c379190612b8d565b610c419190612bfe565b9050919050565b60048181548110610c5857600080fd5b906000526020600020016000915090505481565b60008060009054906101000a900473ffffffffffffffffffffffffffffffffffffffff16905090565b600060086000838152602001908152602001600020549050919050565b60076020528060005260406000206000915090508060000160009054906101000a900460ff16908060000160019054906101000a900460ff16905082565b610cf8612113565b6006600083815260200190815260200160002060405180610120016040529081600082015481526020016001820160009054906101000a900473ffffffffffffffffffffffffffffffffffffffff1673ffffffffffffffffffffffffffffffffffffffff1673ffffffffffffffffffffffffffffffffffffffff1681526020016002820160009054906101000a900473ffffffffffffffffffffffffffffffffffffffff1673ffffffffffffffffffffffffffffffffffffffff1673ffffffffffffffffffffffffffffffffffffffff1681526020016003820154815260200160048201548152602001600582015481526020016006820160009054906101000a900460ff161515151581526020016006820160019054906101000a900460ff161515151581526020016006820160029054906101000a900473ffffffffffffffffffffffffffffffffffffffff1673ffffffffffffffffffffffffffffffffffffffff1673ffffffffffffffffffffffffffffffffffffffff16815250509050919050565b60066020528060005260406000206000915090508060000154908060010160009054906101000a900473ffffffffffffffffffffffffffffffffffffffff16908060020160009054906101000a900473ffffffffffffffffffffffffffffffffffffffff16908060030154908060040154908060050154908060060160009054906101000a900460ff16908060060160019054906101000a900460ff16908060060160029054906101000a900473ffffffffffffffffffffffffffffffffffffffff16905089565b600381565b600581565b60025481565b600060606007600084815260200190815260200160002060000160019054906101000a900460ff16610fbd576040517f08c379a0000000000000000000000000000000000000000000000000000000008152600401610fb490612c7b565b60405180910390fd5b6000600760008581526020019081526020016000206040518060600160405290816000820160009054906101000a900460ff161515151581526020016000820160019054906101000a900460ff161515151581526020016001820180548060200260200160405190810160405280929190818152602001828054801561106257602002820191906000526020600020905b81548152602001906001019080831161104e575b5050505050815250509050806000015181604001519250925050915091565b600061108b611dd6565b7f0000000000000000000000000000000000000000000000000000000000000000905090565b60007f000000000000000000000000000000000000000000000000000000000000000073ffffffffffffffffffffffffffffffffffffffff16635d3b1d307f00000000000000000000000000000000000000000000000000000000000000007f000000000000000000000000000000000000000000000000000000000000000060036207a12060016040518663ffffffff1660e01b8152600401611159959493929190612c9b565b6020604051808303816000875af1158015611178573d6000803e3d6000fd5b505050506040513d601f19601f8201168201806040525081019061119c9190612d03565b90506040518060600160405280600015158152602001600115158152602001600067ffffffffffffffff8111156111d6576111d56122ad565b5b6040519080825280602002602001820160405280156112045781602001602082028036833780820191505090505b508152506007600083815260200190815260200160002060008201518160000160006101000a81548160ff02191690831515021790555060208201518160000160016101000a81548160ff02191690831515021790555060408201518160010190805190602001906112779291906121a5565b509050506004819080600181540180825580915050600190039060005260206000200160009091909190915055806005819055507fcc58b13ad3eab50626c6a6300b1d139cd6ebb1688a7cced9461c2f7e762665ee8160016040516112dd929190612d30565b60405180910390a190565b60006006600083815260200190815260200160002060405180610120016040529081600082015481526020016001820160009054906101000a900473ffffffffffffffffffffffffffffffffffffffff1673ffffffffffffffffffffffffffffffffffffffff1673ffffffffffffffffffffffffffffffffffffffff1681526020016002820160009054906101000a900473ffffffffffffffffffffffffffffffffffffffff1673ffffffffffffffffffffffffffffffffffffffff1673ffffffffffffffffffffffffffffffffffffffff1681526020016003820154815260200160048201548152602001600582015481526020016006820160009054906101000a900460ff161515151581526020016006820160019054906101000a900460ff161515151581526020016006820160029054906101000a900473ffffffffffffffffffffffffffffffffffffffff1673ffffffffffffffffffffffffffffffffffffffff1673ffffffffffffffffffffffffffffffffffffffff16815250509050600073ffffffffffffffffffffffffffffffffffffffff163373ffffffffffffffffffffffffffffffffffffffff16036114da576040517f08c379a00000000000000000000000000000000000000000000000000000000081526004016114d190612da5565b60405180910390fd5b80606001513414611520576040517f08c379a000000000000000000000000000000000000000000000000000000000815260040161151790612e37565b60405180910390fd5b600115158160c0015115151480156115405750600015158160e001511515145b61157f576040517f08c379a000000000000000000000000000000000000000000000000000000000815260040161157690612ea3565b60405180910390fd5b33816040019073ffffffffffffffffffffffffffffffffffffffff16908173ffffffffffffffffffffffffffffffffffffffff168152505034816060018181516115c99190612b59565b915081815250506115dd8160800151611f18565b8160a001818152505060006115f06110b1565b90508160000151600860008381526020019081526020016000208190555081600660008581526020019081526020016000206000820151816000015560208201518160010160006101000a81548173ffffffffffffffffffffffffffffffffffffffff021916908373ffffffffffffffffffffffffffffffffffffffff16021790555060408201518160020160006101000a81548173ffffffffffffffffffffffffffffffffffffffff021916908373ffffffffffffffffffffffffffffffffffffffff160217905550606082015181600301556080820151816004015560a0820151816005015560c08201518160060160006101000a81548160ff02191690831515021790555060e08201518160060160016101000a81548160ff0219169083151502179055506101008201518160060160026101000a81548173ffffffffffffffffffffffffffffffffffffffff021916908373ffffffffffffffffffffffffffffffffffffffff160217905550905050343373ffffffffffffffffffffffffffffffffffffffff1683600001517f48bba6a72d4a9fae48e2469ce99518c38afec785fa4f3df38a1a76b03a97953760405160405180910390a4505050565b6117b9611dd6565b600073ffffffffffffffffffffffffffffffffffffffff168173ffffffffffffffffffffffffffffffffffffffff1603611828576040517f08c379a000000000000000000000000000000000000000000000000000000000815260040161181f90612f35565b60405180910390fd5b61183181611e54565b50565b60055481565b6007600083815260200190815260200160002060000160019054906101000a900460ff1661189d576040517f08c379a000000000000000000000000000000000000000000000000000000000815260040161189490612c7b565b60405180910390fd5b60016007600084815260200190815260200160002060000160006101000a81548160ff021916908315150217905550806007600084815260200190815260200160002060010190805190602001906118f69291906121a5565b507ffe2e2d779dba245964d4e3ef9b994be63856fd568bf7d3ca9e224755cb1bd54d8282604051611928929190612f55565b60405180910390a160006008600084815260200190815260200160002054905060006006600083815260200190815260200160002060405180610120016040529081600082015481526020016001820160009054906101000a900473ffffffffffffffffffffffffffffffffffffffff1673ffffffffffffffffffffffffffffffffffffffff1673ffffffffffffffffffffffffffffffffffffffff1681526020016002820160009054906101000a900473ffffffffffffffffffffffffffffffffffffffff1673ffffffffffffffffffffffffffffffffffffffff1673ffffffffffffffffffffffffffffffffffffffff1681526020016003820154815260200160048201548152602001600582015481526020016006820160009054906101000a900460ff161515151581526020016006820160019054906101000a900460ff161515151581526020016006820160029054906101000a900473ffffffffffffffffffffffffffffffffffffffff1673ffffffffffffffffffffffffffffffffffffffff1673ffffffffffffffffffffffffffffffffffffffff16815250509050600083600081518110611ae157611ae0612f85565b5b602002602001015190506000611af78683611f34565b90508083610100019073ffffffffffffffffffffffffffffffffffffffff16908173ffffffffffffffffffffffffffffffffffffffff16815250506000611b418460600151610c26565b90506000818560600151611b559190612fb4565b905060018560e001901515908115158152505084600660008881526020019081526020016000206000820151816000015560208201518160010160006101000a81548173ffffffffffffffffffffffffffffffffffffffff021916908373ffffffffffffffffffffffffffffffffffffffff16021790555060408201518160020160006101000a81548173ffffffffffffffffffffffffffffffffffffffff021916908373ffffffffffffffffffffffffffffffffffffffff160217905550606082015181600301556080820151816004015560a0820151816005015560c08201518160060160006101000a81548160ff02191690831515021790555060e08201518160060160016101000a81548160ff0219169083151502179055506101008201518160060160026101000a81548173ffffffffffffffffffffffffffffffffffffffff021916908373ffffffffffffffffffffffffffffffffffffffff16021790555090505060008373ffffffffffffffffffffffffffffffffffffffff1682604051611ce390612908565b60006040518083038185875af1925050503d8060008114611d20576040519150601f19603f3d011682016040523d82523d6000602084013e611d25565b606091505b5050905080611d69576040517f08c379a0000000000000000000000000000000000000000000000000000000008152600401611d6090613034565b60405180910390fd5b85606001518473ffffffffffffffffffffffffffffffffffffffff16887ff5d92df6ae1a0b46d0a0c57c2e1da0d75d7591d2804ad086cb1e27ba67de7aaf60405160405180910390a48260036000828254611dc49190612b59565b92505081905550505050505050505050565b611dde6120f5565b73ffffffffffffffffffffffffffffffffffffffff16611dfc610c6c565b73ffffffffffffffffffffffffffffffffffffffff1614611e52576040517f08c379a0000000000000000000000000000000000000000000000000000000008152600401611e49906130a0565b60405180910390fd5b565b60008060009054906101000a900473ffffffffffffffffffffffffffffffffffffffff169050816000806101000a81548173ffffffffffffffffffffffffffffffffffffffff021916908373ffffffffffffffffffffffffffffffffffffffff1602179055508173ffffffffffffffffffffffffffffffffffffffff168173ffffffffffffffffffffffffffffffffffffffff167f8be0079c531659141344cd1fd0a4f28419497f9722a3daafe3b4186f6b6457e060405160405180910390a35050565b6000808203611f2a5760019050611f2f565b600090505b919050565b6000806006600085815260200190815260200160002060405180610120016040529081600082015481526020016001820160009054906101000a900473ffffffffffffffffffffffffffffffffffffffff1673ffffffffffffffffffffffffffffffffffffffff1673ffffffffffffffffffffffffffffffffffffffff1681526020016002820160009054906101000a900473ffffffffffffffffffffffffffffffffffffffff1673ffffffffffffffffffffffffffffffffffffffff1673ffffffffffffffffffffffffffffffffffffffff1681526020016003820154815260200160048201548152602001600582015481526020016006820160009054906101000a900460ff161515151581526020016006820160019054906101000a900460ff161515151581526020016006820160029054906101000a900473ffffffffffffffffffffffffffffffffffffffff1673ffffffffffffffffffffffffffffffffffffffff1673ffffffffffffffffffffffffffffffffffffffff1681525050905060006120c3846120fd565b90506000826080015190508082036120e457826020015193505050506120ef565b826040015193505050505b92915050565b600033905090565b600060028261210c91906130c0565b9050919050565b60405180610120016040528060008152602001600073ffffffffffffffffffffffffffffffffffffffff168152602001600073ffffffffffffffffffffffffffffffffffffffff168152602001600081526020016000815260200160008152602001600015158152602001600015158152602001600073ffffffffffffffffffffffffffffffffffffffff1681525090565b8280548282559060005260206000209081019282156121e1579160200282015b828111156121e05782518255916020019190600101906121c5565b5b5090506121ee91906121f2565b5090565b5b8082111561220b5760008160009055506001016121f3565b5090565b600067ffffffffffffffff82169050919050565b61222c8161220f565b82525050565b60006020820190506122476000830184612223565b92915050565b6000604051905090565b600080fd5b600080fd5b6000819050919050565b61227481612261565b811461227f57600080fd5b50565b6000813590506122918161226b565b92915050565b600080fd5b6000601f19601f8301169050919050565b7f4e487b7100000000000000000000000000000000000000000000000000000000600052604160045260246000fd5b6122e58261229c565b810181811067ffffffffffffffff82111715612304576123036122ad565b5b80604052505050565b600061231761224d565b905061232382826122dc565b919050565b600067ffffffffffffffff821115612343576123426122ad565b5b602082029050602081019050919050565b600080fd5b600061236c61236784612328565b61230d565b9050808382526020820190506020840283018581111561238f5761238e612354565b5b835b818110156123b857806123a48882612282565b845260208401935050602081019050612391565b5050509392505050565b600082601f8301126123d7576123d6612297565b5b81356123e7848260208601612359565b91505092915050565b6000806040838503121561240757612406612257565b5b600061241585828601612282565b925050602083013567ffffffffffffffff8111156124365761243561225c565b5b612442858286016123c2565b9150509250929050565b600063ffffffff82169050919050565b6124658161244c565b82525050565b6000602082019050612480600083018461245c565b92915050565b6000819050919050565b61249981612486565b82525050565b60006020820190506124b46000830184612490565b92915050565b6000602082840312156124d0576124cf612257565b5b60006124de84828501612282565b91505092915050565b6124f081612261565b82525050565b600060208201905061250b60008301846124e7565b92915050565b600073ffffffffffffffffffffffffffffffffffffffff82169050919050565b600061253c82612511565b9050919050565b61254c81612531565b82525050565b60006020820190506125676000830184612543565b92915050565b60008115159050919050565b6125828161256d565b82525050565b600060408201905061259d6000830185612579565b6125aa6020830184612579565b9392505050565b6125ba81612261565b82525050565b6125c981612531565b82525050565b6125d88161256d565b82525050565b610120820160008201516125f560008501826125b1565b50602082015161260860208501826125c0565b50604082015161261b60408501826125c0565b50606082015161262e60608501826125b1565b50608082015161264160808501826125b1565b5060a082015161265460a08501826125b1565b5060c082015161266760c08501826125cf565b5060e082015161267a60e08501826125cf565b5061010082015161268f6101008501826125c0565b50505050565b6000610120820190506126ab60008301846125de565b92915050565b6000610120820190506126c7600083018c6124e7565b6126d4602083018b612543565b6126e1604083018a612543565b6126ee60608301896124e7565b6126fb60808301886124e7565b61270860a08301876124e7565b61271560c0830186612579565b61272260e0830185612579565b612730610100830184612543565b9a9950505050505050505050565b600061ffff82169050919050565b6127558161273e565b82525050565b6000602082019050612770600083018461274c565b92915050565b600081519050919050565b600082825260208201905092915050565b6000819050602082019050919050565b60006127ae83836125b1565b60208301905092915050565b6000602082019050919050565b60006127d282612776565b6127dc8185612781565b93506127e783612792565b8060005b838110156128185781516127ff88826127a2565b975061280a836127ba565b9250506001810190506127eb565b5085935050505092915050565b600060408201905061283a6000830185612579565b818103602083015261284c81846127c7565b90509392505050565b61285e81612531565b811461286957600080fd5b50565b60008135905061287b81612855565b92915050565b60006020828403121561289757612896612257565b5b60006128a58482850161286c565b91505092915050565b60006040820190506128c36000830185612543565b6128d06020830184612543565b9392505050565b600081905092915050565b50565b60006128f26000836128d7565b91506128fd826128e2565b600082019050919050565b6000612913826128e5565b9150819050919050565b600082825260208201905092915050565b7f524f49207472616e73666572206661696c656400000000000000000000000000600082015250565b600061296460138361291d565b915061296f8261292e565b602082019050919050565b6000602082019050818103600083015261299381612957565b9050919050565b7f41646472657373207a65726f2063616e206e6f7420637265617465206120676160008201527f6d65210000000000000000000000000000000000000000000000000000000000602082015250565b60006129f660238361291d565b9150612a018261299a565b604082019050919050565b60006020820190508181036000830152612a25816129e9565b9050919050565b7f42657420616d6f756e742073686f756c64206265206d6f7265206f722065717560008201527f616c20746f206d696e696d756d2062657420616d6f756e740000000000000000602082015250565b6000612a8860388361291d565b9150612a9382612a2c565b604082019050919050565b60006020820190508181036000830152612ab781612a7b565b9050919050565b7f43686f6963652063616e206f6e6c792062652031206f72203000000000000000600082015250565b6000612af460198361291d565b9150612aff82612abe565b602082019050919050565b60006020820190508181036000830152612b2381612ae7565b9050919050565b7f4e487b7100000000000000000000000000000000000000000000000000000000600052601160045260246000fd5b6000612b6482612261565b9150612b6f83612261565b9250828201905080821115612b8757612b86612b2a565b5b92915050565b6000612b9882612261565b9150612ba383612261565b9250828202612bb181612261565b91508282048414831517612bc857612bc7612b2a565b5b5092915050565b7f4e487b7100000000000000000000000000000000000000000000000000000000600052601260045260246000fd5b6000612c0982612261565b9150612c1483612261565b925082612c2457612c23612bcf565b5b828204905092915050565b7f72657175657374206e6f7420666f756e64000000000000000000000000000000600082015250565b6000612c6560118361291d565b9150612c7082612c2f565b602082019050919050565b60006020820190508181036000830152612c9481612c58565b9050919050565b600060a082019050612cb06000830188612490565b612cbd6020830187612223565b612cca604083018661274c565b612cd7606083018561245c565b612ce4608083018461245c565b9695505050505050565b600081519050612cfd8161226b565b92915050565b600060208284031215612d1957612d18612257565b5b6000612d2784828501612cee565b91505092915050565b6000604082019050612d4560008301856124e7565b612d52602083018461245c565b9392505050565b7f496e76616c696420616464726573732100000000000000000000000000000000600082015250565b6000612d8f60108361291d565b9150612d9a82612d59565b602082019050919050565b60006020820190508181036000830152612dbe81612d82565b9050919050565b7f4e6565642073616d6520616d6f756e7420746f206a6f696e207468652067616d60008201527f6521000000000000000000000000000000000000000000000000000000000000602082015250565b6000612e2160228361291d565b9150612e2c82612dc5565b604082019050919050565b60006020820190508181036000830152612e5081612e14565b9050919050565b7f43616e6e6f74206a6f696e207468652067616d65210000000000000000000000600082015250565b6000612e8d60158361291d565b9150612e9882612e57565b602082019050919050565b60006020820190508181036000830152612ebc81612e80565b9050919050565b7f4f776e61626c653a206e6577206f776e657220697320746865207a65726f206160008201527f6464726573730000000000000000000000000000000000000000000000000000602082015250565b6000612f1f60268361291d565b9150612f2a82612ec3565b604082019050919050565b60006020820190508181036000830152612f4e81612f12565b9050919050565b6000604082019050612f6a60008301856124e7565b8181036020830152612f7c81846127c7565b90509392505050565b7f4e487b7100000000000000000000000000000000000000000000000000000000600052603260045260246000fd5b6000612fbf82612261565b9150612fca83612261565b9250828203905081811115612fe257612fe1612b2a565b5b92915050565b7f57696e6e6572207072697a65207472616e73666572206973206661696c656400600082015250565b600061301e601f8361291d565b915061302982612fe8565b602082019050919050565b6000602082019050818103600083015261304d81613011565b9050919050565b7f4f776e61626c653a2063616c6c6572206973206e6f7420746865206f776e6572600082015250565b600061308a60208361291d565b915061309582613054565b602082019050919050565b600060208201905081810360008301526130b98161307d565b9050919050565b60006130cb82612261565b91506130d683612261565b9250826130e6576130e5612bcf565b5b82820690509291505056fea264697066735822122011663c77af95f2fc77345ead8b3c06bd51a945db69c1452b07182b71ee6f3b4464736f6c63430008130033",
  "devdoc": {
    "kind": "dev",
    "methods": {
      "owner()": {
        "details": "Returns the address of the current owner."
      },
      "renounceOwnership()": {
        "details": "Leaves the contract without owner. It will not be possible to call `onlyOwner` functions. Can only be called by the current owner. NOTE: Renouncing ownership will leave the contract without an owner, thereby disabling any functionality that is only available to the owner."
      },
      "transferOwnership(address)": {
        "details": "Transfers ownership of the contract to a new account (`newOwner`). Can only be called by the current owner."
      }
    },
    "version": 1
  },
  "userdoc": {
    "kind": "user",
    "methods": {
      "gamesRequests(uint256)": {
        "notice": "This is a mapping to track requests for a random numberto games Ids"
      }
    },
    "version": 1
  },
  "storageLayout": {
    "storage": [
      {
        "astId": 161,
        "contract": "contracts/CoinFlip.sol:CoinFlip",
        "label": "_owner",
        "offset": 0,
        "slot": "0",
        "type": "t_address"
      },
      {
        "astId": 277,
        "contract": "contracts/CoinFlip.sol:CoinFlip",
        "label": "_status",
        "offset": 0,
        "slot": "1",
        "type": "t_uint256"
      },
      {
        "astId": 371,
        "contract": "contracts/CoinFlip.sol:CoinFlip",
        "label": "gameId",
        "offset": 0,
        "slot": "2",
        "type": "t_uint256"
      },
      {
        "astId": 376,
        "contract": "contracts/CoinFlip.sol:CoinFlip",
        "label": "roiBalance",
        "offset": 0,
        "slot": "3",
        "type": "t_uint256"
      },
      {
        "astId": 395,
        "contract": "contracts/CoinFlip.sol:CoinFlip",
        "label": "requestIds",
        "offset": 0,
        "slot": "4",
        "type": "t_array(t_uint256)dyn_storage"
      },
      {
        "astId": 397,
        "contract": "contracts/CoinFlip.sol:CoinFlip",
        "label": "lastRequestId",
        "offset": 0,
        "slot": "5",
        "type": "t_uint256"
      },
      {
        "astId": 429,
        "contract": "contracts/CoinFlip.sol:CoinFlip",
        "label": "createdGames",
        "offset": 0,
        "slot": "6",
        "type": "t_mapping(t_uint256,t_struct(Game)416_storage)"
      },
      {
        "astId": 434,
        "contract": "contracts/CoinFlip.sol:CoinFlip",
        "label": "s_requests",
        "offset": 0,
        "slot": "7",
        "type": "t_mapping(t_uint256,t_struct(RequestStatus)424_storage)"
      },
      {
        "astId": 439,
        "contract": "contracts/CoinFlip.sol:CoinFlip",
        "label": "gamesRequests",
        "offset": 0,
        "slot": "8",
        "type": "t_mapping(t_uint256,t_uint256)"
      }
    ],
    "types": {
      "t_address": {
        "encoding": "inplace",
        "label": "address",
        "numberOfBytes": "20"
      },
      "t_array(t_uint256)dyn_storage": {
        "base": "t_uint256",
        "encoding": "dynamic_array",
        "label": "uint256[]",
        "numberOfBytes": "32"
      },
      "t_bool": {
        "encoding": "inplace",
        "label": "bool",
        "numberOfBytes": "1"
      },
      "t_mapping(t_uint256,t_struct(Game)416_storage)": {
        "encoding": "mapping",
        "key": "t_uint256",
        "label": "mapping(uint256 => struct CoinFlip.Game)",
        "numberOfBytes": "32",
        "value": "t_struct(Game)416_storage"
      },
      "t_mapping(t_uint256,t_struct(RequestStatus)424_storage)": {
        "encoding": "mapping",
        "key": "t_uint256",
        "label": "mapping(uint256 => struct CoinFlip.RequestStatus)",
        "numberOfBytes": "32",
        "value": "t_struct(RequestStatus)424_storage"
      },
      "t_mapping(t_uint256,t_uint256)": {
        "encoding": "mapping",
        "key": "t_uint256",
        "label": "mapping(uint256 => uint256)",
        "numberOfBytes": "32",
        "value": "t_uint256"
      },
      "t_struct(Game)416_storage": {
        "encoding": "inplace",
        "label": "struct CoinFlip.Game",
        "members": [
          {
            "astId": 399,
            "contract": "contracts/CoinFlip.sol:CoinFlip",
            "label": "gameId",
            "offset": 0,
            "slot": "0",
            "type": "t_uint256"
          },
          {
            "astId": 401,
            "contract": "contracts/CoinFlip.sol:CoinFlip",
            "label": "player1",
            "offset": 0,
            "slot": "1",
            "type": "t_address"
          },
          {
            "astId": 403,
            "contract": "contracts/CoinFlip.sol:CoinFlip",
            "label": "player2",
            "offset": 0,
            "slot": "2",
            "type": "t_address"
          },
          {
            "astId": 405,
            "contract": "contracts/CoinFlip.sol:CoinFlip",
            "label": "betAmount",
            "offset": 0,
            "slot": "3",
            "type": "t_uint256"
          },
          {
            "astId": 407,
            "contract": "contracts/CoinFlip.sol:CoinFlip",
            "label": "player1Choice",
            "offset": 0,
            "slot": "4",
            "type": "t_uint256"
          },
          {
            "astId": 409,
            "contract": "contracts/CoinFlip.sol:CoinFlip",
            "label": "player2Choice",
            "offset": 0,
            "slot": "5",
            "type": "t_uint256"
          },
          {
            "astId": 411,
            "contract": "contracts/CoinFlip.sol:CoinFlip",
            "label": "isStarted",
            "offset": 0,
            "slot": "6",
            "type": "t_bool"
          },
          {
            "astId": 413,
            "contract": "contracts/CoinFlip.sol:CoinFlip",
            "label": "isFinished",
            "offset": 1,
            "slot": "6",
            "type": "t_bool"
          },
          {
            "astId": 415,
            "contract": "contracts/CoinFlip.sol:CoinFlip",
            "label": "winner",
            "offset": 2,
            "slot": "6",
            "type": "t_address"
          }
        ],
        "numberOfBytes": "224"
      },
      "t_struct(RequestStatus)424_storage": {
        "encoding": "inplace",
        "label": "struct CoinFlip.RequestStatus",
        "members": [
          {
            "astId": 418,
            "contract": "contracts/CoinFlip.sol:CoinFlip",
            "label": "fulfilled",
            "offset": 0,
            "slot": "0",
            "type": "t_bool"
          },
          {
            "astId": 420,
            "contract": "contracts/CoinFlip.sol:CoinFlip",
            "label": "exists",
            "offset": 1,
            "slot": "0",
            "type": "t_bool"
          },
          {
            "astId": 423,
            "contract": "contracts/CoinFlip.sol:CoinFlip",
            "label": "randomWords",
            "offset": 0,
            "slot": "1",
            "type": "t_array(t_uint256)dyn_storage"
          }
        ],
        "numberOfBytes": "64"
      },
      "t_uint256": {
        "encoding": "inplace",
        "label": "uint256",
        "numberOfBytes": "32"
      }
    }
  }
}